:020000040800F2
:10000000E8110020810200089B150008F91400087F
:100010009915000895030008B11C000800000000B5
:10002000000000000000000000000000A101000826
:100030009703000800000000FD0100089117000868
:100040009B0200089B0200089B0200089B0200081C
:100050009B0200089B0200089B0200089B0200080C
:100060009B0200089B0200089B0200089B020008FC
:100070009B0200089B0200089B0200089B020008EC
:100080009B0200089B0200089B0200089B020008DC
:100090009B0200089B0200089B0200089B020008CC
:1000A0009B0200087D1800089B0200089B020008C4
:1000B0009B02000800000000000000009B020008F6
:1000C0009B02000800000000000000009B020008E6
:1000D000000000009B0200089B02000800000000D6
:1000E0009B0200089B0200080000000000000000C6
:1000F0000000000000000000000000000000000000
:100100000000000000000000000000009B0200084A
:1001100000000000000000009B0200089B02000895
:100120009B0200089B0200089B0200089B0200083B
:100130009B0200080000000000000000000000001A
:100140009B0200089B0200089B0200089B0200081B
:100150009B0200089B0200089B0200089B0200080B
:100160009B0200089B0200089B02000800000000A0
:100170009B0200089B020008000000000000000035
:100180009B0200089B0200089B020008DFF80CD0CD
:1001900000F0EEF800480047DD1C0008E8110020E0
:1001A0002C4B1968086800F05AB880F30988BFF32F
:1001B0006F8F4FF0000080F311887047000000003F
:1001C00008480068006880F308884FF0000080F35A
:1001D000148862B661B6BFF34F8FBFF36F8F00DF35
:1001E00000BF00BF08ED00E0DFF80C00016841F43B
:1001F00070010160704700BF88ED00E0EFF30980F7
:10020000BFF36F8F134B1A681EF0100F08BF20ED5D
:10021000108A20E9F04F106009B44FF0500080F3CD
:100220001188BFF34F8FBFF36F8F02F0E9F84FF0E3
:10023000000080F3118809BC1968086800F014B840
:100240001EF0100F08BF00F014B880F30988BFF348
:100250006F8F704748000020EFF30580704730C86B
:10026000B0E8C04FFFF7A1BF30C8B0E8C04FFFF7FC
:10027000E7BFB0EC088AB0EC08CAFFF7E6BF0000A1
:100280000648804706480047FEE7FEE7FEE7FEE730
:10029000FEE7FEE7FEE7FEE7FEE7FEE739180008A7
:1002A0008D0100082DE9F05F0546002092469B462F
:1002B00088460646814640241BE02846414647467C
:1002C000224600F044F853465A46C01A914110D3D2
:1002D00011461846224600F02BF82D1A67EB01084C
:1002E0004F4622460120002100F022F817EB0009BA
:1002F0004E41201EA4F10104DFDC484631462A4667
:10030000434600F000B830BCBDE8C09F40EA01039E
:100310009B0703D009E008C9121F08C0042AFAD2BB
:1003200003E011F8013B00F8013B521EF9D270477F
:10033000202A04DB203A00FA02F1002070479140A5
:10034000C2F1200320FA03F3194390407047202A9A
:1003500004DB203A21FA02F00021704721FA02F36F
:10036000D040C2F120029140084319467047000076
:10037000064C074D06E0E06840F0010394E80700F2
:1003800098471034AC42F6D3FFF704FF0828000862
:1003900028280008FEE7704770B5044600F0DCF836
:1003A0000546601C00D0641C00F0D6F8401BA0423B
:1003B000FAD370BD2DE9F84FDFF870B100230127A3
:1003C0004FF0030A4FF00F090BF1040EA7E000BF36
:1003D00007FA03F6324070D04C68022C01D0122C80
:1003E00010D1DC0800EB8408D8F820405D074FEA04
:1003F000D56C09FA0CF5AC430D6905FA0CF52543EB
:10040000C8F82050D0F800805D0091F804C00AFAC6
:1004100005F40CF0030C28EA04080CFA05FC4CEA7D
:10042000080CC0F800C0D1F804C0BCF1010F08D01E
:10043000BCF1020F05D0BCF1110F02D0BCF1120FBC
:1004400016D1D0F808C0D1F80C802CEA040C08FAB8
:1004500005F848EA0C08C0F80880D0F804C02CEA77
:10046000060C0E79C6F300169E4046EA0C0646605E
:10047000C668A6438C68AC403443C4604C68E40052
:100480004CD52B4C256E45F001052566246E23F0D6
:10049000030504F001040094264C2E19B4689D074E
:1004A0004FEA157C09FA0CF5AC43B0F1904F05D03A
:1004B000214DA84204D1012508E02FE0002505E0E8
:1004C0001E4DA84201D1022500E0072505FA0CF5D2
:1004D0002543B560DBF800405D464E689443F60363
:1004E00000D514432C60DEF8004075464E689443F6
:1004F000B60300D514432C600C4D08352C684E68AB
:100500009443F60200D514432C60084D0C352C683A
:100510004E689443B60200D514432C605B1C0A68F5
:1005200032FA03F47FF454AF00F00AB8000401403B
:10053000001002400000014000040048000800488C
:1005400018BCBDE8E08F42694A40426170470AB179
:100550008161704781627047014800687047000000
:100560001C00002002480168491C0160704700001F
:100570001C00002010B50024032000F0B1F800207A
:1005800000F008F808B1012401E000F03DF8204631
:1005900010BD000000B5014687B00022192000F010
:1005A0007FF8192000F070F81348016E41F40061E3
:1005B0000166006E05A900F400600690684600F030
:1005C000BFFA00F0F5FA0D490D4AB0FBF1F10D4804
:1005D000491E0260416040F2E7320021C0E9032178
:1005E000816000F0C8FD10B1012007B000BD0548D2
:1005F00000F0DEFDF9E700000010024040420F006D
:10060000002C0140FC0000201E4808B5016E41F09E
:1006100001010166016E01F001010091816D41F05F
:1006200080518165806D00F080500090032000F0C3
:1006300057F8002211466FF00B0000F031F800224D
:1006400011466FF00A0000F02BF8002211466FF0FF
:10065000090000F025F800221146501F00F020F894
:1006600000221146101F00F01BF800220F21901EDF
:1006700000F016F800220F21BDE80840501E00F0DF
:100680000FB800000010024000F01F02012191404D
:100690004009800000F1E020C0F800117047000020
:1006A000F0B40E4B1B680C46C3F30223C3F10705DD
:1006B000042D00D90425191D072901D2002300E0CB
:1006C000DB1E012606FA05F1491E214099409E4095
:1006D000761E16403143F0BC00F060BF0CED00E028
:1006E000064900F0070208684FF6FF03184040EA89
:1006F0000220034A10430860704700000CED00E040
:100700000000FA051649B0F5007F0868C0F34120E3
:1007100009D0022805D0086820F4C06040F4806049
:100720000860002070470128FBD0086820F4C060F2
:1007300040F4007008600B483222006850430A4AB7
:10074000B0FBF2F0401C00E0401E4A69520501D5A2
:100750000028F9D148694005E3D50320704700001F
:10076000007000402000002040420F000248006856
:1007700000F4C0607047000000700040024801684B
:1007800041F48071016070470070004002480168C8
:1007900041F0040101607047001002402DE9F84F5C
:1007A0000446002700889C4D3E46000515D5E06BA9
:1007B00060B1B0F5000F04D0B0F5400F2BD0012789
:1007C0000AE0E86840F48030E86024E00021201D61
:1007D00000F0F4FE07001ED03E462068800338D5A6
:1007E000A86D4FF00008C00009D4A86D40F08050FB
:1007F000A865A86D4FF0010800F080500090DFF868
:100800001CA2DAF8001041F48071CAF80010FFF75A
:10081000A3FE814610E0D5F88800E16B20F440008B
:100820000843C5F88800D8E7FFF796FEA0EB09005B
:10083000022801D9032704E0DAF80000C005F3D547
:10084000EFB33E46B8F1000F03D0A86D20F0805002
:10085000A8652078C00707D0D5F88800216A20F065
:1008600003000843C5F888002078800707D5D5F82D
:100870008800616A20F00C000843C5F888002078E1
:10088000800607D5D5F88800A16A20F440600843A7
:10089000C5F888002088800507D5D5F88800616BE9
:1008A00020F440200843C5F888002088400509D579
:1008B000D5F88800A16B20F44010084300E02EE03A
:1008C000C5F888002078400607D5D5F88800E16A89
:1008D00020F440500843C5F888002088C00507D59B
:1008E000D5F88800216B20F440300843C5F8880013
:1008F00020884FF0006780044FF080684ED5D5F80F
:100900008800216C20F040600843C5F88800206C06
:10091000B8423BD1E86840F48010E8603EE0D5F88A
:10092000900010F4407014D0216D814211D0D5F8A0
:100930009000D5F8901020F4407041F48031C5F853
:100940009010D5F8901021F48031C5F89010C5F8BA
:100950009000C00711D0FFF7FFFD074641F288392C
:1009600007E000BFFFF7F8FDC11B494501D9032689
:1009700068E7D5F890008007F4D5D5F89000216D90
:1009800020F440700843C5F890005BE7404505D16E
:100990000121201D00F012FE00B106462068400330
:1009A00017D5D5F88800616C20F040600843C5F881
:1009B0008800606CB84204D1E86840F48010E860B8
:1009C00007E0404505D10121201D00F0F7FD00B1F1
:1009D00006462088400411D5D5F88800A16C20F087
:1009E00040500843C5F88800A06CB0F1805F05D185
:1009F0000221201D00F0E2FD00B10646208800041F
:100A000006D555F8880FE16C20F080400843286037
:100A1000304600F005B800000010024000700040B1
:100A200018BCBDE8E08F00002DE9F0470F46050037
:100A300058D03F4E306800F00700B84209D2306805
:100A400020F0070038433060306800F00700B842FB
:100A500048D12878374CC0072CD06868032811D0BB
:100A6000022812D0216898B1490500293ADAA16814
:100A700021F003010143A160FFF76EFD804641F2C2
:100A8000883910E021688901EFE721688903ECE7E4
:100A90008907EAE7FFF760FDA0EB0801494502D9A5
:100AA0000320BDE8F087A068696800F00C00B0EB97
:100AB000810FEFD12878800705D5A068A96820F0BC
:100AC000F0000843A060306800F00700B8420BD97E
:100AD000306820F0070038433060306800F00700CD
:100AE000B84201D00120DCE72878400705D5A0688E
:100AF000E96820F4E0600843A0602878000706D584
:100B0000A068296920F4605040EAC100A06000F0AC
:100B100061F8A168084AC1F30311515C01F01F019B
:100B2000C84006490860BDE8F0470020FFF732BD25
:100B30000020024000100240A827000820000020EA
:100B40000F2202600C4A936803F00303436093682A
:100B500003F0F0038360936803F4E063C36092687A
:100B60004FF4E06303EAD20202610448006800F037
:100B7000070008607047000000100240002002409B
:100B80000148006870470000200000200548064921
:100B900000688968054AC1F30221515C01F01F0118
:100BA000C84070472000002000100240E8270008DD
:100BB0000548064900688968054AC1F3C221515CAD
:100BC00001F01F01C84070472000002000100240C3
:100BD000E827000870B52549002318468A68CC68C4
:100BE00012F00C0204F00306214C4FEA640509D010
:100BF0000C2A05D0042A26D0082A00D1284670BD28
:100C0000012E10D10B681B0704D4D1F89430C3F324
:100C1000032302E00B68C3F30313164E56F8233088
:100C20007AB10C2AEBD1C86800F00302C868C0F39F
:100C30000210401C022A08D0032A09D0B3FBF0F0AE
:100C400008E0184670BD204670BDB4FBF0F001E02E
:100C5000B5FBF0F0CA68C968C2F306225043C1F37D
:100C60004161491C4900B0FBF1F070BD0010024029
:100C70000024F400B82700082DE9F84305007CD0D3
:100C8000FD4CA06800F00C06E06800F0030728782F
:100C9000C00662D576B10C2E01D1012F0AD0A86909
:100CA0000028206878D040F001002060FFF754FC55
:100CB000804659E02068800702D5A8690028DED068
:100CC000296A2068000703D5206800F0F00004E0DE
:100CD000D4F89400F02202EA1010814216D9084696
:100CE00000F002FD002848D1206840F00800206094
:100CF0002068296A20F0F000084320606068E969F4
:100D000020F47F4040EA0120606015E0206840F058
:100D1000080020602068296A20F0F0000843206065
:100D20006068E96920F47F4040EA01206060286A39
:100D300000F0DAFC0028D6D1FFF74CFFA168CF4ABB
:100D4000C1F30311515C01F01F01C840CC49086098
:100D50000020FFF71FFC00287ED12EE0FFF7FCFBF0
:100D6000A0EB0800022878D820688007F6D5206814
:100D700040F008002060206801E0BBE00CE0296A38
:100D800020F0F000084320606068E96920F47F40AB
:100D900040EA0120606010E020F001002060FFF7D1
:100DA000DBFB804606E000BFFFF7D6FBA0EB0800A8
:100DB0000228D8D820688007F6D42878C00740D009
:100DC000082E18D00C2E01D1032F14D06868B0F56E
:100DD000803F17D0B0F5A02F206817D020F48030C6
:100DE0002060206820F4802020606868E0B1FFF770
:100DF000B3FB804614E02068800322D56868002891
:100E000078D01EE0206840F48030EDE740F4802088
:100E10002060F7E7FFF7A0FBA0EB08006428A2D84A
:100E200020688003F6D50CE0FFF796FB804605E0CE
:100E3000FFF792FBA0EB0800642894D82068800399
:100E4000F6D4287880073BD5042E11D00C2E01D182
:100E5000022F0DD0E86801E05EE1B8E000282068CC
:100E60001ED040F480702060FFF776FB07460CE050
:100E7000206840050CD5E8680028C1D008E000BF14
:100E8000FFF76AFBC01B022893D820684005F7D5FE
:100E90006068297C20F0F85040EA016060600FE053
:100EA00020F480702060FFF757FB074605E000BF85
:100EB000FFF752FBC01B0228B1D820684005F7D4C9
:100EC0002878000729D568690028D4F8940012D042
:100ED00040F00100C4F89400FFF73EFB074604E031
:100EE000FFF73AFBC01B022871D8D4F894008007A2
:100EF000F6D512E017E120F00100C4F89400FFF7E6
:100F00002BFB074605E000BFFFF726FBC01B0228AE
:100F10005DD8D4F894008007F6D42878400766D5C9
:100F2000A06D0027C00008D4A06D40F08050A065DF
:100F3000A06D012700F08050009052480168C9055B
:100F400012D40168814641F480710160FFF704FB0F
:100F5000804605E0FFF700FBA0EB0800022836D82A
:100F6000D9F80000C005F5D5A868012816D00528D5
:100F7000D4F8900017D020F00100C4F89000D4F805
:100F8000900020F0040000BFC4F89000A86841F26F
:100F90008839C0B1FFF7E0FA80460FE0D4F890003E
:100FA00040F00100F0E740F00400C4F89000F5E7DD
:100FB000FFF7D2FAA0EB0801494508D8D4F8900011
:100FC0008007F5D50EE0FFF7C7FA804606E07CE023
:100FD000FFF7C2FAA0EB0801494576D8D4F8900093
:100FE0008007F5D41FB1A06D20F08050A06528784F
:100FF000800628D5686A0028D4F8980012D040F0FE
:101000000100C4F89800FFF7A7FA074605E000BF03
:10101000FFF7A2FAC01B02287DD8D4F898008007F9
:10102000F6D510E020F00100C4F89800FFF794FA1C
:10103000074604E0FFF790FAC01B02286BD8D4F8EB
:1010400098008007F6D4A86AF0B30C2E6BD0022863
:10105000206820F08070206018D02068000103D440
:10106000E06820F00300E060E06807490840E060C5
:10107000FFF772FA054651E000100240A827000869
:101080002000002000700040FFFFEEFEFFF764FA32
:10109000064604E0FFF760FA801B02283BD8206870
:1010A0008001F7D4286B55F82C1F00011038084335
:1010B000298A1E4A490802EB4151AA6841EA0221E5
:1010C0000843297D490801E02BE024E04FF07E42EF
:1010D00002EB41610843297B40EAC160E06020687F
:1010E00040F080702060E06840F08070E060FFF7C2
:1010F00033FA054605E000BFFFF72EFA401B022831
:1011000009D820688001F7D50BE000BFFFF724FA6B
:10111000401B022802D90320BDE8F8832068800123
:10112000F4D40020F8E70120F6E700000000E0FF1B
:101130004FF0E0210428086903D020F00400086182
:10114000704740F00400FAE710B5401EB0F1807F10
:1011500001D3012010BD4FF0E02460610F21601722
:1011600000F01CFA0020A06107202061002010BDC3
:1011700070477047704710B5040003D094F83D00E5
:1011800010B107E0012010BD002084F83C0020468B
:1011900000F00CF8022084F83D00211D206800F0CA
:1011A00073FB012084F83D00002010BD7047000053
:1011B0000168CA6842F00102CA6000688268074993
:1011C0000A40062A08D082680A40B2F5803F03D060
:1011D000016841F001010160002070470700010033
:1011E000704770B50446006801694FF00005C943B7
:1011F000890715D4C168C943890711D4E91E016163
:1012000001202077206880698007204602D0FFF700
:10121000E7FF04E000F0A7F8204600F0A5F82577E6
:1012200020680169C943490717D4C168C943490700
:1012300013D46FF0040101610220207720688069D7
:1012400010F4407F204602D0FFF7CAFF04E000F010
:101250008AF8204600F088F8257720680169C9439C
:10126000090716D4C168C943090712D46FF00801F1
:101270000161042020772068C0698007204602D0E1
:10128000FFF7AEFF04E000F06EF8204600F06CF8C7
:10129000257720680169C943C90617D4C168C943C5
:1012A000C90613D46FF0100101610820207720686F
:1012B000C06910F4407F204602D0FFF791FF04E0A0
:1012C00000F051F8204600F04FF8257720680169BA
:1012D000C943C90708D1C168C943C90704D1891ED8
:1012E0000161204600F042F820680169C9430906FF
:1012F00009D4C168C943090605D46FF080010161B2
:101300002046FFF736FF20680169C943C90509D4A3
:10131000C168C943090605D46FF480710161204694
:10132000FFF726FF20680169C943490609D4C1684F
:10133000C943490605D46FF040010161204600F021
:101340001FF820680169C94389060BD4C168C943E5
:10135000890607D46FF0200101612046BDE8704086
:10136000FFF708BF70BD7047704700000068034971
:10137000884201D1FFF7F6B870470000002C014009
:10138000704710B5040003D094F8710010B107E065
:10139000012010BD002084F87000204600F026F8DF
:1013A000242084F871002068016821F001010160A7
:1013B000204600F031FB0128EBD0606A10B12046D6
:1013C00000F098FA2068416821F49041416020685B
:1013D000816821F02A0181602068016841F00101E3
:1013E00001602046BDE8104000F0E8BAF0B50068A2
:1013F000134987B0884221D11248816D41F40031F0
:101400008165806D022500F40030059004200026DF
:101410008DE8610003240720CDE903404FF0904799
:1014200069463846FEF7C6FFA803CDE90005CDE9B9
:101430000264694604943846FEF7BCFF07B0F0BD6D
:1014400000440040001002402DE9F843044690F8A3
:1014500071001F4616460D4620284BD1C5B1BEB1BE
:1014600094F87000012845D0012084F870004FF0F6
:101470000008C4F87480212084F87100FFF76CF82C
:10148000A4F850608146A4F852604FF4805615E0ED
:101490000120BDE8F8838021204600F0D7FBD8B9B1
:1014A000A068B04201D12069C0B115F8010B2168D4
:1014B0000885B4F85200401EA4F85200B4F8520057
:1014C0004B464FF0000200970028E4D14FF0400156
:1014D000204600F0BBFB30B10320DAE735F8020B01
:1014E000C0F30800E3E7202084F8710084F87080DE
:1014F0000020CEE70220CCE7FEE70000164810B53A
:10150000C16C86B041F00401C164C16C01F00401FA
:101510000591C16C41F00101C164C16C01F0010190
:101520000591C16C41F00201C164C06C0B4C00F02C
:1015300002000590002208212046FFF708F8082045
:10154000009001200021CDE9010103916946204668
:10155000FEF730FF06B010BD001002400004004846
:101560000C4810B50A4901604FF416514160002142
:1015700081600C22C160C0E904128161C161016215
:101580004162FFF7FEFE002800D0FEE710BD00001C
:101590000044004084000020FEE770470907090E60
:1015A000002806DA00F00F0000F1E02080F8141D9A
:1015B000704700F1E02080F8001470472DE9F041F9
:1015C000444C05468846E0680026810728680DD00F
:1015D000E16801F00301814216D1A8B1E0686968B1
:1015E000C0F30210401C88420ED120E0012804D034
:1015F000022805D0032807D108E02168890701E007
:1016000021684905002907DB01265FE0216889037D
:1016100002D421684903F5E7E1686A686FF00F03B7
:1016200021F0730103EB021211430143E1602068D2
:1016300020F080602060FEF78FFF074605E000BFC6
:10164000FEF78AFFC01B022837D820680001F7D4B4
:10165000B8F1000F18D0B8F1010F1DD0287D4FF060
:101660007E41400801EB4060A96840EA0120216901
:10167000194A114008432061206840F080602060D2
:10168000FEF76AFF07461AE0A868297B000240EAD5
:10169000C1602169114AECE7288A1149400801EB31
:1016A0004050A96840EA012021690E4AE1E700BFE5
:1016B000FEF752FFC01B022801D9032606E020686E
:1016C0000001F5D52069A969084320613046BDE8CD
:1016D000F081000000100240FF80FFF9FF80FF074B
:1016E0000000E0FFFF809FFFF8B51C4D0646002478
:1016F000A86DC00002D5FFF739F80DE0A86D40F0E5
:101700008050A865A86D00F080500090FFF72EF87B
:10171000A96D21F08051A965B0F5007F04D0802E1D
:1017200007D94FF003040AE0802E08D9A02E01D873
:1017300004E001D1022402E0702E00D10124084807
:10174000016821F0070121430160006800F00700F3
:10175000A04201D00120F8BD0020F8BD00100240D9
:10176000002002404FF47A7400F0B2FA2046FEF7EF
:1017700013FE012000F0DEFAF6E74FF47A7400F071
:1017800007FB2046FEF708FE012000F0D3FAF6E73B
:1017900000F0DCBA30B5ABB0FEF7F0FF254850F8EA
:1017A000901F21F0180101601420009001200024F6
:1017B0000290CDE906040225CDE90A5060210C9083
:1017C000089110200D900720CDE90E056846109570
:1017D000FFF752FA00B1FEE70F2026900320CDE973
:1017E00027042994012126A82A94FFF71DF900B1A6
:1017F000FEE711A811951A94FEF7D0FF00B1FEE79D
:101800004FF40070FEF77EFF00B1FEE7FFF7B8F976
:101810004FF47A71B0FBF1F0FFF796FC0420FFF76C
:1018200087FCFEF7B3FF00220F21501EFEF738FFA2
:101830002BB030BD001002400D48016841F470012A
:1018400001600C48016841F00101016000218160E4
:101850000268094B1A4002608214C260026822F4D6
:101860008022026081610249C003803908607047AC
:1018700088ED00E000100240FFFFF6EA0148FFF7A4
:10188000B0BC0000FC00002070B50268164B4FF0A1
:101890008046984201D0B04203D122F070044A68D9
:1018A0002243124C124D984205D0B04203D0A042C0
:1018B00001D0A84203D122F44076CA6832434E696F
:1018C00022F08002324302608A68C2620A68826241
:1018D000984203D0A04201D0A84201D10969016316
:1018E0000121416170BD0000002C01400040014019
:1018F0000044014090F82410C90706D001684A68E6
:10190000836A22F400321A434A6090F8241089074F
:1019100006D501684A68C36A22F480321A434A60D5
:1019200090F82410490706D501684A68036B22F431
:1019300080221A434A6090F82410090706D50168EE
:101940004A68436B22F400421A434A6090F824101C
:10195000C90606D501688A68836B22F480521A434F
:101960008A6090F82410890606D501688A68C36BDE
:1019700022F400521A438A6090F82410490611D5C7
:1019800001684A68036C22F480121A434A60016CB1
:10199000B1F5801F06D101684A68436C22F4C00289
:1019A0001A434A6090F82410090606D501684A686F
:1019B000806C22F4002202434A607047F8B500268A
:1019C00004464667FEF7C8FD0546206800686FF0CC
:1019D0007E47000708D52B4600224FF40011204611
:1019E000009700F033F960B92068006840070AD515
:1019F0002B4600224FF480012046009700F026F984
:101A000008B10320F8BD202084F8710084F872002A
:101A100084F870600020F8BD2DE9F04104460268AA
:101A200080682369E66918436369102500273343FA
:101A300018437D4913687D4E33400343136020688B
:101A40004268E36822F440521A4342602268A06967
:101A50008A4201D0236A1843936823F43063034316
:101A60009360734A2368734893420DD1D0F888007D
:101A700010F0030006D001282AD0022826D003281F
:101A800029D127E0012526E06B4A93420BD1D0F8FB
:101A9000880010F00C0017D0042819D0082815D0A1
:101AA0000C2818D116E08B4215D1D0F8880010F41C
:101AB000406009D0B0F5806F0AD0B0F5006F05D056
:101AC000B0F5406F07D105E0002504E0022502E0F3
:101AD000042500E00825594A00264FF400408B42B7
:101AE0003DD135B1022D07D0042D07D0082D10D1DE
:101AF00007E0FFF74BF803E0104602E0FFF76AF853
:101B0000A8B3626802EB4201814202D8B0EB023F07
:101B100001D9012775E0DFF828815DB1022D0CD0D5
:101B2000042D13D0082DF4D150082905401846F192
:101B3000000105E0FFF72AF80AE050084149F5E7FF
:101B40000023FEF7AFFBA0F5407156E0FFF742F827
:101B50006268010E0302500818187141F0E7E1694C
:101B60004FF6EF7881422FD1092DD2D200E048E024
:101B7000DFE805F006092005230505052600C8E76E
:101B8000FFF704F801E0FFF713F84100D4F8040070
:101B900001EB5001B1FBF0F080B2A0F11001414522
:101BA000B7D84FF6F0710140C0F3420001432068FE
:101BB000C16026E024496068EAE7FFF70BF8E4E734
:101BC0004FF480316068E3E7092DA2D2DFE805F029
:101BD00006091E052205050525009AE7FEF7D6FF32
:101BE00001E0FEF7E5FF0146606801EB500100BF30
:101BF000B1FBF0F080B2A0F11001414589D8216815
:101C0000C860266638466666BDE8F081606802EB0B
:101C10005001EDE7FEF7DEFFE5E7616800EB5100FC
:101C2000B0FBF1F0E6E7000000800040F369FFEF51
:101C30000038014000100240004400400024F4003D
:101C4000FFFC0F00000024F40048E8012DE9F041FA
:101C5000984617460E460446069D1DE0681C1BD09C
:101C60002DB1FEF779FCA0EB0800A84214D920683A
:101C7000016821F4D07101602068816821F00101C0
:101C80008160202084F8710084F87200002084F8BC
:101C900070000320BDE8F0812068C06936EA0000CA
:101CA00004D00020B842D9D00020F3E70120F9E7A2
:101CB000FEE702E008C8121F08C1002AFAD17047E7
:101CC0007047002001E001C1121F002AFBD17047BC
:101CD00008210148FEF737BC000400488AB0FEF72F
:101CE00049FCFFF757FDFFF709FCFFF739FC142209
:101CF0000B496846FEF70AFB0021684600F030F801
:101D0000084C074914222060143105A8FEF7FEFA9A
:101D1000002105A800F024F8606000F012F8FEE74A
:101D2000802700080000002001460020842900D000
:101D3000C81C704710B500B9012000F0FFFA002060
:101D400010BD10B500F020FB002010BD10B500F054
:101D500043FC012803D0BDE8104000F0F9BB10BDE2
:101D60003EB504460D46B0F90800FFF7DDFF02A9B5
:101D7000CDE90001208A2B4682B2D4E9001000F0A0
:101D8000FDFB012801D000203EBD02983EBD0000B1
:101D90006423142201490248FFF756BB08000020C3
:101DA000840000202DE9F041184C0F460546666975
:101DB0002068001D00F008FA38B9206890F82C104F
:101DC00001208840A1698143A161681C07D137B116
:101DD0002168BDE8F0410E48091D00F02EBA2068C8
:101DE0003544B5424560216805D2A068BDE8F041A0
:101DF000091D00F00ABA6068091D00F006FA206BA0
:101E0000854200D22563BDE8F08100004800002033
:101E1000D00D00202DE9F041054600F01BFA2E4CB4
:101E20002069401C206120682C4F10B1E06940B34C
:101E30002DE025602069012829D1002606EB8600C7
:101E400007EB800000F0D3F9761C072EF6D3234869
:101E50008C3000F0CCF92148A03000F0C8F91F48C0
:101E6000B43000F0C4F91D48C83000F0C0F91B4878
:101E7000DC3000F0BCF919488C3060601430A06090
:101E800005E02068E96AC06A884200D82560E06AF7
:101E9000401CE062E96A0120A26988401043A06109
:101EA00001EB810007EB8000291D00F0C6F900F06E
:101EB000F1F9E06900280CD02068E96AC06A88421C
:101EC00007D207494FF080500860BFF34F8FBFF330
:101ED0006F8FBDE8F081000048000020F40C002066
:101EE00004ED00E010B50446006B00F0E7F9204671
:101EF000BDE8104000F0E2B90F4840F6B8314207A3
:101F000005D0C01D0C4A20F00700821A891A0B4A1E
:101F100000230144C2E900030839103A21F0070107
:101F200011604B600B600B1AC0E9001393604FF017
:101F300000405360D06070473C0100203400002016
:101F4000144E154CA6F1C8074FF08058DFF84C909E
:101F500012E000BF00F07EF9F068C568281D00F0AF
:101F600033F92069401E2061E068401EE06000F007
:101F700091F92846FFF7B6FFE0680028EAD13868F3
:101F80000128F9D9C9F80080BFF34F8FBFF36F8FD5
:101F9000F2E70000BC0D00204800002004ED00E046
:101FA0002DE9F0479A46DDE9098481466FF0030385
:101FB000206B03EB82021044089D20F00706700797
:101FC00007D0502080F31188BFF34F8FBFF36F8F7E
:101FD000FEE723180A5C83F834200A5C12B1401C27
:101FE0001028F6D3002784F84370072D00D3062568
:101FF000E562C4E91157201D00F004F904F118004E
:1020000000F000F92461C5F107006462A061E76493
:1020100084F8507052464946304600F0BFF82060C0
:10202000B8F1000F01D0C8F80040BDE8F08700000B
:1020300030B5114900E011460A688242FBD34B6873
:102040005C18844203D140681844486008464368DD
:102050001C18944209D1084C103C2468A24209D0B3
:1020600052681A4442600A6812680260814200D0D5
:10207000086030BD0460F9E734000020064841687C
:10208000096829B14168C968C9684968016370472E
:102090004FF0FF31FAE70000480000200848406890
:1020A000401C4FF0500080F3118804D0BFF34F8FD5
:1020B000BFF36F8FFEE7BFF34F8FBFF36F8FFEE766
:1020C0003C0000202DE9F0410546002700F090F982
:1020D000314E306808B9FFF70FFFF06805424BD169
:1020E000C5B3083568070ED005F00700C0F1080039
:1020F0000544680707D0502080F31188BFF34F8F45
:10210000BFF36F8FFEE72DB37068854234D8224845
:10211000103001460C6801E020460C466168A94277
:1021200002D221680029F7D131688C4224D0076897
:102130002168016060680837411B10290FD96019B8
:10214000420708D0502080F31188BFF34F8FBFF3B0
:102150006F8FFEE710E041606560FFF769FF61681F
:102160007068401A7060B268904200D2B060F06847
:1021700001430020C4E9000100F0A0FA780707D06D
:10218000502080F31188BFF34F8FBFF36F8FFEE7AE
:102190003846BDE8F08100002400002010B5031F80
:1021A0004FF080741C601B1F21F001011960191F82
:1021B000044B0B6014390A60091F6FF002024438A7
:1021C0000A6010BD9D200008D0E9013201699A60C3
:1021D000D0E901235A604A68824201D182684A608C
:1021E000002202610868401E08600868704700F11C
:1021F00008014FF0FF32C0E90112C1600161002106
:102200000160704700210161704730B50B685A1CAE
:1022100002D000F1080202E0026904E0224654689C
:1022200025689D42FAD953684B6099608A60516075
:1022300008610168491C016030BD42684A609368CA
:102240008B6093685960916008610168491C016066
:1022500070470000502080F31188BFF34F8FBFF309
:102260006F8F0A494868401C486001280CD1084813
:10227000006810F0FF0F07D0502080F31188BFF3E3
:102280004F8FBFF36F8FFEE7704700003C000020C8
:1022900004ED00E00849486828B1401E486001D1BB
:1022A00080F311887047502080F31188BFF34F8F5F
:1022B000BFF36F8FFEE700003C00002070B50028E0
:1022C00027D0144DA0F108046168E868014207D1E5
:1022D000502080F31188BFF34F8FBFF36F8FFEE75D
:1022E00022683AB1502080F31188BFF34F8FBFF3BB
:1022F0006F8FFEE78143616000F07AF8606869687B
:10230000084468602046FFF793FEBDE8704000F087
:10231000D5B970BD240000204FF0E02000210161FC
:10232000816105494FF47A720968B1FBF2F1491EE7
:1023300041610721016170472000002010B50200B3
:1023400014D00F48806B38B1502080F31188BFF350
:102350004F8FBFF36F8FFEE700F04AF80021104661
:10236000FFF720FD00F0AAF9002807D105494FF03A
:1023700080500860BFF34F8FBFF36F8F10BD000018
:102380004800002004ED00E01CB515480024CDE90C
:1023900000402346802213A1144800F0EFF80128E2
:1023A00009D0401C1AD1502080F31188BFF34F8F01
:1023B000BFF36F8FFEE7502080F31188BFF34F8F7C
:1023C000BFF36F8F06484FF0FF31343801630121AE
:1023D000C1614461BDE81C4000F040B81CBD000074
:1023E0007C00002049444C4500000000411F0008CB
:1023F0000248816B491C816370470000480000203F
:102400001448816B11B10121416270470021416282
:102410008169B1FA81F1C1F11F0101EB81020E491D
:1024200051F822306BB101EB820101F108034A68D7
:1024300052684A609A4201D152684A60D16801608C
:102440007047502080F31188BFF34F8FBFF36F8F19
:10245000FEE7000048000020F40C00201CB53748BF
:102460000168374A914207D1502080F31188BFF3A9
:102470004F8FBFF36F8FFEE700683149491E8842D6
:1024800007D1502080F31188BFF34F8FBFF36F8FB8
:10249000FEE72C4908780190FF20087008788DF835
:1024A00000009DF800009DF8002000F0F000904230
:1024B00007D0502080F31188BFF34F8FBFF36F8F89
:1024C000FEE79DF80000204B00F050001870072038
:1024D000986005E09DF8002052008DF80020401E15
:1024E0009DF800201206F5D49860032807D05020EC
:1024F00080F31188BFF34F8FBFF36F8FFEE74FF468
:1025000040709860019808700C482030016841F4D0
:1025100070010160016841F070410160FFF7FCFE4D
:1025200000205860FDF760FE0848016841F0404116
:102530000160FDF745FE00201CBD000000ED00E03D
:1025400071C20F4100E400E03C00002034EF00E0E5
:1025500010B5502080F31188BFF34F8FBFF36F8FFA
:1025600000F048F818B104494FF08050086000208E
:1025700080F3118810BD000004ED00E02DE9FF5F3D
:102580008346DDE90E87994616468A469000FFF796
:1025900099FD05001AD05420FFF794FD040012D0D5
:1025A00025630021CDE90241CDE900874B46324643
:1025B00051465846FFF7F4FC2046FFF72BFC01205C
:1025C00004B000F006B82846FFF778FE4FF0FF3061
:1025D000F6E730BCBDE8C09F0548C16919B1806B02
:1025E00018B100207047012070470220704700009A
:1025F000480000202DE9F0412E4C0027A06B40B18F
:10260000206A401C2062606A00B101273846BDE89C
:10261000F0816669761C666113D16068006838B124
:10262000502080F31188BFF34F8FBFF36F8FFEE709
:102630006068A1686160A060A06A401CA062FFF7AA
:102640001DFD206BDFF87080864209D3606800684A
:1026500080B16068C068C568686886420DD2206332
:102660002068C06A00EB800158F821000128CAD90F
:102670000127C8E74FF0FF30F1E7281DFFF7A4FD61
:10268000A86A18B105F11800FFF79EFDE86A01215C
:10269000A26981401143A16100EB800108EB810038
:1026A000291DFFF7CAFDE86A2168C96A8842CDD3AF
:1026B0000127CBE748000020F40C00202DE9F0476B
:1026C0002C4D00242746A86B38B1FFF7C3FDA86B3B
:1026D000401EA863A86B40B146E0502080F31188EB
:1026E000BFF34F8FBFF36F8FFEE72969224E0120A2
:1026F000D1B3A6F1B40980463068E8B1F068C46887
:1027000004F11800FFF760FD201DFFF75DFDE06A92
:10271000AA6908FA00F11143A96100EB800109EBF5
:102720008100211DFFF789FDE06A2968C96A884296
:10273000E2D3C5F82480DFE70CB1FFF79FFC2C6AD9
:1027400044B14646FFF756FF00B16E62641EF9D1F0
:1027500000202862686A38B10849012738070860F4
:10276000BFF34F8FBFF36F8FFFF794FD3846BDE87F
:10277000F087000048000020A80D002004ED00E0D4
:10278000FC2700086517000800000000000000009A
:1027900080000000F02700087B1700080000000000
:1027A00000000000800000000000000000000000A9
:1027B0000102030406070809A0860100400D03007A
:1027C000801A060000350C0040420F0080841E0075
:1027D00000093D0000127A000024F40000366E016A
:1027E0000048E801006CDC02000000000102030464
:1027F0007365636F6E645461736B0000646566613A
:10280000756C745461736B00282800080000002068
:1028100084000000B21C0008AC28000884000020DE
:1028200064110000C21C000800000000000000004D
:1028300048656C6C6F20576F726C64210A0D000044
:10284000000000000000000000093D000000000042
:102850000000000000000000000000000000000078
:102860000000000000000000AAAAAAAA00000000C0
:102870000000000000000000000000000000000058
:102880000000000000000000000000000000000048
:102890000000000000000000000000000000000038
:0C28A0000000000000000000000000002C
:040000050800018D61
:00000001FF
